{
  "contractName": "TodoList",
  "abi": [
    {
      "constant": true,
      "inputs": [],
      "name": "itemCount",
      "outputs": [
        {
          "name": "",
          "type": "uint256"
        }
      ],
      "payable": false,
      "stateMutability": "view",
      "type": "function"
    },
    {
      "constant": true,
      "inputs": [
        {
          "name": "",
          "type": "uint256"
        }
      ],
      "name": "itemIds",
      "outputs": [
        {
          "name": "",
          "type": "uint256"
        }
      ],
      "payable": false,
      "stateMutability": "view",
      "type": "function"
    },
    {
      "constant": true,
      "inputs": [
        {
          "name": "",
          "type": "uint256"
        }
      ],
      "name": "items",
      "outputs": [
        {
          "name": "id",
          "type": "uint256"
        },
        {
          "name": "text",
          "type": "string"
        },
        {
          "name": "completed",
          "type": "bool"
        }
      ],
      "payable": false,
      "stateMutability": "view",
      "type": "function"
    },
    {
      "inputs": [],
      "payable": false,
      "stateMutability": "nonpayable",
      "type": "constructor"
    },
    {
      "anonymous": false,
      "inputs": [
        {
          "components": [
            {
              "name": "id",
              "type": "uint256"
            },
            {
              "name": "text",
              "type": "string"
            },
            {
              "name": "completed",
              "type": "bool"
            }
          ],
          "indexed": false,
          "name": "item",
          "type": "tuple"
        }
      ],
      "name": "TaskCreated",
      "type": "event"
    },
    {
      "constant": true,
      "inputs": [],
      "name": "getItemids",
      "outputs": [
        {
          "name": "",
          "type": "uint256[]"
        }
      ],
      "payable": false,
      "stateMutability": "view",
      "type": "function"
    },
    {
      "constant": false,
      "inputs": [
        {
          "name": "_text",
          "type": "string"
        }
      ],
      "name": "createTask",
      "outputs": [],
      "payable": false,
      "stateMutability": "nonpayable",
      "type": "function"
    },
    {
      "constant": false,
      "inputs": [
        {
          "name": "id",
          "type": "uint256"
        }
      ],
      "name": "deleteTask",
      "outputs": [],
      "payable": false,
      "stateMutability": "nonpayable",
      "type": "function"
    }
  ],
  "bytecode": "0x6080604052600080553480156200001557600080fd5b506200005c6040518060400160405280600b81526020017f6472696e6b207761746572000000000000000000000000000000000000000000815250620000a860201b60201c565b620000a26040518060400160405280600881526020017f6561742070616e74000000000000000000000000000000000000000000000000815250620000a860201b60201c565b62000351565b6000805460019081018083556040805160608101825282815260208082018781528284018790529386528481529190942084518155915180519293620000f79390850192919091019062000198565b506040918201516002918201805460ff19169115159190911790556000805482546001810184559282527f405787fa12a823e0f2b7631cc41b3ba8828b3321ca811111fa75cd3aa3bb5ace9092018290558251606081018452918252602082018490528183015290517f29beb8ec38f8c283e5df51ae1c91c959cdb628a0eaa6d7c9de54da575a2348ee916200018d91620002e8565b60405180910390a150565b828054600181600116156101000203166002900490600052602060002090601f016020900481019282601f10620001db57805160ff19168380011785556200020b565b828001600101855582156200020b579182015b828111156200020b578251825591602001919060010190620001ee565b50620002199291506200021d565b5090565b6200023a91905b8082111562000219576000815560010162000224565b90565b62000248816200030f565b82525050565b60006200025b8262000302565b62000267818562000306565b93506200027981856020860162000314565b620002848162000347565b9093019392505050565b80516000906060840190620002a48582620002dd565b5060208301518482036020860152620002be82826200024e565b9150506040830151620002d560408601826200023d565b509392505050565b62000248816200023a565b60208082528101620002fb81846200028e565b9392505050565b5190565b90815260200190565b151590565b60005b838110156200033157818101518382015260200162000317565b8381111562000341576000848401525b50505050565b601f01601f191690565b6107f280620003616000396000f3fe608060405234801561001057600080fd5b50600436106100625760003560e01c8063111002aa14610067578063560f31921461007c5780636bfb0d011461008f578063b3dc00fe146100ad578063bfb231d2146100c0578063d08716ef146100e2575b600080fd5b61007a610075366004610530565b6100f7565b005b61007a61008a36600461056d565b6101e3565b610097610297565b6040516100a491906106ba565b60405180910390f35b6100976100bb36600461056d565b61029d565b6100d36100ce36600461056d565b6102bb565b6040516100a4939291906106c8565b6100ea61036a565b6040516100a49190610691565b6000805460019081018083556040805160608101825282815260208082018781528284018790529386528481529190942084518155915180519293610144939085019291909101906103c3565b506040918201516002918201805460ff19169115159190911790556000805482546001810184559282527f405787fa12a823e0f2b7631cc41b3ba8828b3321ca811111fa75cd3aa3bb5ace9092018290558251606081018452918252602082018490528183015290517f29beb8ec38f8c283e5df51ae1c91c959cdb628a0eaa6d7c9de54da575a2348ee916101d8916106a9565b60405180910390a150565b60005b6002548110156102665781600282815481106101fe57fe5b9060005260206000200154141561025e5760028054600019810190811061022157fe5b90600052602060002001546002828154811061023957fe5b6000918252602090912001556002805490610258906000198301610441565b50610266565b6001016101e6565b506000818152600160208190526040822082815591906102889083018261046a565b50600201805460ff1916905550565b60005481565b600281815481106102aa57fe5b600091825260209091200154905081565b600160208181526000928352604092839020805481840180548651600296821615610100026000190190911695909504601f810185900485028601850190965285855290949193929091908301828280156103575780601f1061032c57610100808354040283529160200191610357565b820191906000526020600020905b81548152906001019060200180831161033a57829003601f168201915b5050506002909301549192505060ff1683565b606060028054806020026020016040519081016040528092919081815260200182805480156103b857602002820191906000526020600020905b8154815260200190600101908083116103a4575b505050505090505b90565b828054600181600116156101000203166002900490600052602060002090601f016020900481019282601f1061040457805160ff1916838001178555610431565b82800160010185558215610431579182015b82811115610431578251825591602001919060010190610416565b5061043d9291506104b1565b5090565b815481835581811115610465576000838152602090206104659181019083016104b1565b505050565b50805460018160011615610100020316600290046000825580601f1061049057506104ae565b601f0160209004906000526020600020908101906104ae91906104b1565b50565b6103c091905b8082111561043d57600081556001016104b7565b600082601f8301126104dc57600080fd5b81356104ef6104ea8261071e565b6106f7565b9150808252602083016020830185838301111561050b57600080fd5b61051683828461075e565b50505092915050565b803561052a816107a4565b92915050565b60006020828403121561054257600080fd5b813567ffffffffffffffff81111561055957600080fd5b610565848285016104cb565b949350505050565b60006020828403121561057f57600080fd5b6000610565848461051f565b60006105978383610688565b505060200190565b60006105aa8261074c565b6105b48185610750565b93506105bf83610746565b8060005b838110156105ed5781516105d7888261058b565b97506105e283610746565b9250506001016105c3565b509495945050505050565b61060181610759565b82525050565b60006106128261074c565b61061c8185610750565b935061062c81856020860161076a565b6106358161079a565b9093019392505050565b805160009060608401906106538582610688565b506020830151848203602086015261066b8282610607565b915050604083015161068060408601826105f8565b509392505050565b610601816103c0565b602080825281016106a2818461059f565b9392505050565b602080825281016106a2818461063f565b6020810161052a8284610688565b606081016106d68286610688565b81810360208301526106e88185610607565b905061056560408301846105f8565b60405181810167ffffffffffffffff8111828210171561071657600080fd5b604052919050565b600067ffffffffffffffff82111561073557600080fd5b506020601f91909101601f19160190565b60200190565b5190565b90815260200190565b151590565b82818337506000910152565b60005b8381101561078557818101518382015260200161076d565b83811115610794576000848401525b50505050565b601f01601f191690565b6107ad816103c0565b81146104ae57600080fdfea265627a7a7230582082480c84343907702fd2b78603fbd63a2d54453bba8d5c005cc8b7e3886249416c6578706572696d656e74616cf50037",
  "source": "pragma experimental ABIEncoderV2;\npragma solidity >=0.5.0;\n\ncontract TodoList {\n\n    uint public itemCount = 0;\n\n    struct Item {\n       uint id;\n       string text;\n       bool completed;\n    }\n    \n    mapping (uint => Item) public items;\n    uint[] public itemIds;\n    \n    event TaskCreated (\n        Item item\n    );\n\n    constructor() public {\n        createTask('drink water');\n        createTask('eat pant');\n    }\n\n    function getItemids() external view returns (uint[] memory) {\n        return itemIds;\n    }\n\n    function createTask(string memory _text) public {\n        itemCount++;\n        items[itemCount] = Item(itemCount, _text, false);\n        itemIds.push(itemCount);\n        emit TaskCreated(Item(itemCount, _text, false));\n    }\n\n    function deleteTask(uint id) public {\n        for(uint i = 0; i < itemIds.length; i++) {\n            if(itemIds[i] == id) {\n                itemIds[i] = itemIds[itemIds.length - 1];\n                itemIds.length--;\n                break;\n            }\n        }\n        delete items[id];\n    }\n}\n",
  "sourcePath": "/home/lovro/blockchain-todo-list/contracts/TodoList.sol",
  "compiler": {
    "name": "solc",
    "version": "0.5.8+commit.23d335f2.Emscripten.clang"
  },
  "schemaVersion": "3.0.11",
  "updatedAt": "2020-08-31T07:41:07.635Z",
  "devdoc": {
    "methods": {}
  },
  "userdoc": {
    "methods": {}
  }
}